{
  "transactions": [
    {
      "hash": "0x2612cebdd5356e3b28152c121cc0239a96cf7c431618922dbfc49ad02aa41ab8",
      "transactionType": "CREATE",
      "contractName": "EraPersonaINFT",
      "contractAddress": "0x33847c5500c2443e2f3bbf547d9b069b334c3d16",
      "function": null,
      "arguments": [
        "0x6DB1508Deeb45E0194d4716349622806672f6Ac2"
      ],
      "transaction": {
        "from": "0x6db1508deeb45e0194d4716349622806672f6ac2",
        "gas": "0x16e8c9",
        "value": "0x0",
        "input": "0x608060405234801562000010575f80fd5b506040516200154b3803806200154b833981016040819052620000339162000131565b806040518060400160405280601081526020016f115c984814195c9cdbdb98481a53919560821b815250604051806040016040528060078152602001661154905253919560ca1b815250815f90816200008d9190620001fe565b5060016200009c8282620001fe565b5050506001600160a01b038116620000cd57604051631e4fbdf760e01b81525f600482015260240160405180910390fd5b620000d881620000e0565b5050620002ca565b600680546001600160a01b038381166001600160a01b0319831681179093556040519116919082907f8be0079c531659141344cd1fd0a4f28419497f9722a3daafe3b4186f6b6457e0905f90a35050565b5f6020828403121562000142575f80fd5b81516001600160a01b038116811462000159575f80fd5b9392505050565b634e487b7160e01b5f52604160045260245ffd5b600181811c908216806200018957607f821691505b602082108103620001a857634e487b7160e01b5f52602260045260245ffd5b50919050565b601f821115620001f957805f5260205f20601f840160051c81016020851015620001d55750805b601f840160051c820191505b81811015620001f6575f8155600101620001e1565b50505b505050565b81516001600160401b038111156200021a576200021a62000160565b62000232816200022b845462000174565b84620001ae565b602080601f83116001811462000268575f8415620002505750858301515b5f19600386901b1c1916600185901b178555620002c2565b5f85815260208120601f198616915b82811015620002985788860151825594840194600190910190840162000277565b5085821015620002b657878501515f19600388901b60f8161c191681555b505060018460011b0185555b505050505050565b61127380620002d85f395ff3fe608060405234801561000f575f80fd5b506004361061011c575f3560e01c806370a08231116100a9578063b88d4fde1161006e578063b88d4fde14610242578063c87b56dd14610255578063d0def52114610268578063e985e9c51461027b578063f2fde38b1461028e575f80fd5b806370a08231146101fb578063715018a61461020e5780638da5cb5b1461021657806395d89b4114610227578063a22cb4651461022f575f80fd5b806318160ddd116100ef57806318160ddd1461019d57806323b872dd146101af5780632f625088146101c257806342842e0e146101d55780636352211e146101e8575f80fd5b806301ffc9a71461012057806306fdde0314610148578063081812fc1461015d578063095ea7b314610188575b5f80fd5b61013361012e366004610d81565b6102a1565b60405190151581526020015b60405180910390f35b6101506102f2565b60405161013f9190610de6565b61017061016b366004610df8565b610381565b6040516001600160a01b03909116815260200161013f565b61019b610196366004610e2a565b6103a8565b005b6007545b60405190815260200161013f565b61019b6101bd366004610e52565b6103b7565b61019b6101d0366004610e8b565b610445565b61019b6101e3366004610e52565b610561565b6101706101f6366004610df8565b610580565b6101a1610209366004610eab565b61058a565b61019b6105cf565b6006546001600160a01b0316610170565b6101506105e2565b61019b61023d366004610ec4565b6105f1565b61019b610250366004610f84565b6105fc565b610150610263366004610df8565b610614565b6101a1610276366004610ffb565b6106bb565b610133610289366004611059565b610701565b61019b61029c366004610eab565b61072e565b5f6001600160e01b031982166380ac58cd60e01b14806102d157506001600160e01b03198216635b5e139f60e01b145b806102ec57506301ffc9a760e01b6001600160e01b03198316145b92915050565b60605f80546103009061108a565b80601f016020809104026020016040519081016040528092919081815260200182805461032c9061108a565b80156103775780601f1061034e57610100808354040283529160200191610377565b820191905f5260205f20905b81548152906001019060200180831161035a57829003601f168201915b5050505050905090565b5f61038b8261076b565b505f828152600460205260409020546001600160a01b03166102ec565b6103b38282336107a3565b5050565b6001600160a01b0382166103e557604051633250574960e11b81525f60048201526024015b60405180910390fd5b5f6103f18383336107b0565b9050836001600160a01b0316816001600160a01b03161461043f576040516364283d7b60e01b81526001600160a01b03808616600483015260248201849052821660448201526064016103dc565b50505050565b5f828152600260205260409020546001600160a01b03166104b45760405162461bcd60e51b8152602060048201526024808201527f457261506572736f6e61494e46543a20746f6b656e20646f6573206e6f7420656044820152631e1a5cdd60e21b60648201526084016103dc565b6006546001600160a01b03163314806104e257505f828152600260205260409020546001600160a01b031633145b61052e5760405162461bcd60e51b815260206004820152601e60248201527f457261506572736f6e61494e46543a206e6f7420617574686f72697a6564000060448201526064016103dc565b4281837f5299a77d2b4293488895b6dea81d075c8c010c488358ccd3c58c0ada2070eac860405160405180910390a45050565b61057b83838360405180602001604052805f8152506105fc565b505050565b5f6102ec8261076b565b5f6001600160a01b0382166105b4576040516322718ad960e21b81525f60048201526024016103dc565b506001600160a01b03165f9081526003602052604090205490565b6105d76108a2565b6105e05f6108cf565b565b6060600180546103009061108a565b6103b3338383610920565b6106078484846103b7565b61043f33858585856109e7565b606061061f8261076b565b505f82815260086020526040902080546106389061108a565b80601f01602080910402602001604051908101604052809291908181526020018280546106649061108a565b80156106af5780601f10610686576101008083540402835291602001916106af565b820191905f5260205f20905b81548152906001019060200180831161069257829003601f168201915b50505050509050919050565b5f6106c46108a2565b60078054905f6106d3836110c2565b9190505590506106e38382610b0f565b5f8181526008602052604090206106fa838261112a565b5092915050565b6001600160a01b039182165f90815260056020908152604080832093909416825291909152205460ff1690565b6107366108a2565b6001600160a01b03811661075f57604051631e4fbdf760e01b81525f60048201526024016103dc565b610768816108cf565b50565b5f818152600260205260408120546001600160a01b0316806102ec57604051637e27328960e01b8152600481018490526024016103dc565b61057b8383836001610b28565b5f828152600260205260408120546001600160a01b03908116908316156107dc576107dc818486610c2c565b6001600160a01b03811615610816576107f75f855f80610b28565b6001600160a01b0381165f90815260036020526040902080545f190190555b6001600160a01b03851615610844576001600160a01b0385165f908152600360205260409020805460010190555b5f8481526002602052604080822080546001600160a01b0319166001600160a01b0389811691821790925591518793918516917fddf252ad1be2c89b69c2b068fc378daa952ba7f163c4a11628f55a4df523b3ef91a4949350505050565b6006546001600160a01b031633146105e05760405163118cdaa760e01b81523360048201526024016103dc565b600680546001600160a01b038381166001600160a01b0319831681179093556040519116919082907f8be0079c531659141344cd1fd0a4f28419497f9722a3daafe3b4186f6b6457e0905f90a35050565b6001600160a01b0383166109495760405163a9fbf51f60e01b81525f60048201526024016103dc565b6001600160a01b03821661097b57604051630b61174360e31b81526001600160a01b03831660048201526024016103dc565b6001600160a01b038381165f81815260056020908152604080832094871680845294825291829020805460ff191686151590811790915591519182527f17307eab39ab6107e8899845ad3d59bd9653f200f220920489ca2b5937696c31910160405180910390a3505050565b6001600160a01b0383163b15610b0857604051630a85bd0160e11b81526001600160a01b0384169063150b7a0290610a299088908890879087906004016111e6565b6020604051808303815f875af1925050508015610a63575060408051601f3d908101601f19168201909252610a6091810190611222565b60015b610aca573d808015610a90576040519150601f19603f3d011682016040523d82523d5f602084013e610a95565b606091505b5080515f03610ac257604051633250574960e11b81526001600160a01b03851660048201526024016103dc565b805160208201fd5b6001600160e01b03198116630a85bd0160e11b14610b0657604051633250574960e11b81526001600160a01b03851660048201526024016103dc565b505b5050505050565b6103b3828260405180602001604052805f815250610c90565b8080610b3c57506001600160a01b03821615155b15610bfd575f610b4b8461076b565b90506001600160a01b03831615801590610b775750826001600160a01b0316816001600160a01b031614155b8015610b8a5750610b888184610701565b155b15610bb35760405163a9fbf51f60e01b81526001600160a01b03841660048201526024016103dc565b8115610bfb5783856001600160a01b0316826001600160a01b03167f8c5be1e5ebec7d5bd14f71427d1e84f3dd0314c0f7b2291e5b200ac8c7c3b92560405160405180910390a45b505b50505f90815260046020526040902080546001600160a01b0319166001600160a01b0392909216919091179055565b610c37838383610ca7565b61057b576001600160a01b038316610c6557604051637e27328960e01b8152600481018290526024016103dc565b60405163177e802f60e01b81526001600160a01b0383166004820152602481018290526044016103dc565b610c9a8383610d0b565b61057b335f8585856109e7565b5f6001600160a01b03831615801590610d035750826001600160a01b0316846001600160a01b03161480610ce05750610ce08484610701565b80610d0357505f828152600460205260409020546001600160a01b038481169116145b949350505050565b6001600160a01b038216610d3457604051633250574960e11b81525f60048201526024016103dc565b5f610d4083835f6107b0565b90506001600160a01b0381161561057b576040516339e3563760e11b81525f60048201526024016103dc565b6001600160e01b031981168114610768575f80fd5b5f60208284031215610d91575f80fd5b8135610d9c81610d6c565b9392505050565b5f81518084525f5b81811015610dc757602081850181015186830182015201610dab565b505f602082860101526020601f19601f83011685010191505092915050565b602081525f610d9c6020830184610da3565b5f60208284031215610e08575f80fd5b5035919050565b80356001600160a01b0381168114610e25575f80fd5b919050565b5f8060408385031215610e3b575f80fd5b610e4483610e0f565b946020939093013593505050565b5f805f60608486031215610e64575f80fd5b610e6d84610e0f565b9250610e7b60208501610e0f565b9150604084013590509250925092565b5f8060408385031215610e9c575f80fd5b50508035926020909101359150565b5f60208284031215610ebb575f80fd5b610d9c82610e0f565b5f8060408385031215610ed5575f80fd5b610ede83610e0f565b915060208301358015158114610ef2575f80fd5b809150509250929050565b634e487b7160e01b5f52604160045260245ffd5b5f67ffffffffffffffff80841115610f2b57610f2b610efd565b604051601f8501601f19908116603f01168101908282118183101715610f5357610f53610efd565b81604052809350858152868686011115610f6b575f80fd5b858560208301375f602087830101525050509392505050565b5f805f8060808587031215610f97575f80fd5b610fa085610e0f565b9350610fae60208601610e0f565b925060408501359150606085013567ffffffffffffffff811115610fd0575f80fd5b8501601f81018713610fe0575f80fd5b610fef87823560208401610f11565b91505092959194509250565b5f806040838503121561100c575f80fd5b61101583610e0f565b9150602083013567ffffffffffffffff811115611030575f80fd5b8301601f81018513611040575f80fd5b61104f85823560208401610f11565b9150509250929050565b5f806040838503121561106a575f80fd5b61107383610e0f565b915061108160208401610e0f565b90509250929050565b600181811c9082168061109e57607f821691505b6020821081036110bc57634e487b7160e01b5f52602260045260245ffd5b50919050565b5f600182016110df57634e487b7160e01b5f52601160045260245ffd5b5060010190565b601f82111561057b57805f5260205f20601f840160051c8101602085101561110b5750805b601f840160051c820191505b81811015610b08575f8155600101611117565b815167ffffffffffffffff81111561114457611144610efd565b61115881611152845461108a565b846110e6565b602080601f83116001811461118b575f84156111745750858301515b5f19600386901b1c1916600185901b178555610b06565b5f85815260208120601f198616915b828110156111b95788860151825594840194600190910190840161119a565b50858210156111d657878501515f19600388901b60f8161c191681555b5050505050600190811b01905550565b6001600160a01b03858116825284166020820152604081018390526080606082018190525f9061121890830184610da3565b9695505050505050565b5f60208284031215611232575f80fd5b8151610d9c81610d6c56fea264697066735822122022e78376b4d275cc9107c808493659165a1fa60a2be0152e8fb16903abcc7a7b64736f6c634300081800330000000000000000000000006db1508deeb45e0194d4716349622806672f6ac2",
        "nonce": "0x1c",
        "chainId": "0x40da"
      },
      "additionalContracts": [],
      "isFixedGasLimit": false
    },
    {
      "hash": "0xc0e6fbb215570982b6fd1b8c2cd4f7fa6f00dffa3ae1b63e7b121619ad1b0463",
      "transactionType": "CALL",
      "contractName": "EraPersonaINFT",
      "contractAddress": "0x33847c5500c2443e2f3bbf547d9b069b334c3d16",
      "function": "mint(address,string)",
      "arguments": [
        "0x6DB1508Deeb45E0194d4716349622806672f6Ac2",
        "https://raw.githubusercontent.com/vaibhav0806/era-multi-persona/master/contracts/metadata/planner.json"
      ],
      "transaction": {
        "from": "0x6db1508deeb45e0194d4716349622806672f6ac2",
        "to": "0x33847c5500c2443e2f3bbf547d9b069b334c3d16",
        "gas": "0x45cf4",
        "value": "0x0",
        "input": "0xd0def5210000000000000000000000006db1508deeb45e0194d4716349622806672f6ac20000000000000000000000000000000000000000000000000000000000000040000000000000000000000000000000000000000000000000000000000000006668747470733a2f2f7261772e67697468756275736572636f6e74656e742e636f6d2f76616962686176303830362f6572612d6d756c74692d706572736f6e612f6d61737465722f636f6e7472616374732f6d657461646174612f706c616e6e65722e6a736f6e0000000000000000000000000000000000000000000000000000",
        "nonce": "0x1d",
        "chainId": "0x40da"
      },
      "additionalContracts": [],
      "isFixedGasLimit": false
    },
    {
      "hash": "0x0bb9d7094f6f697e9d02384046eac0a8c1bb167afb4f4382705b9be7e9a7039c",
      "transactionType": "CALL",
      "contractName": "EraPersonaINFT",
      "contractAddress": "0x33847c5500c2443e2f3bbf547d9b069b334c3d16",
      "function": "mint(address,string)",
      "arguments": [
        "0x6DB1508Deeb45E0194d4716349622806672f6Ac2",
        "https://raw.githubusercontent.com/vaibhav0806/era-multi-persona/master/contracts/metadata/coder.json"
      ],
      "transaction": {
        "from": "0x6db1508deeb45e0194d4716349622806672f6ac2",
        "to": "0x33847c5500c2443e2f3bbf547d9b069b334c3d16",
        "gas": "0x3a44c",
        "value": "0x0",
        "input": "0xd0def5210000000000000000000000006db1508deeb45e0194d4716349622806672f6ac20000000000000000000000000000000000000000000000000000000000000040000000000000000000000000000000000000000000000000000000000000006468747470733a2f2f7261772e67697468756275736572636f6e74656e742e636f6d2f76616962686176303830362f6572612d6d756c74692d706572736f6e612f6d61737465722f636f6e7472616374732f6d657461646174612f636f6465722e6a736f6e00000000000000000000000000000000000000000000000000000000",
        "nonce": "0x1e",
        "chainId": "0x40da"
      },
      "additionalContracts": [],
      "isFixedGasLimit": false
    },
    {
      "hash": "0xe7d12a63614b473e763414dcf9fe0ffe7581558fb6de3fd51d3802ac8dcb5566",
      "transactionType": "CALL",
      "contractName": "EraPersonaINFT",
      "contractAddress": "0x33847c5500c2443e2f3bbf547d9b069b334c3d16",
      "function": "mint(address,string)",
      "arguments": [
        "0x6DB1508Deeb45E0194d4716349622806672f6Ac2",
        "https://raw.githubusercontent.com/vaibhav0806/era-multi-persona/master/contracts/metadata/reviewer.json"
      ],
      "transaction": {
        "from": "0x6db1508deeb45e0194d4716349622806672f6ac2",
        "to": "0x33847c5500c2443e2f3bbf547d9b069b334c3d16",
        "gas": "0x3a47d",
        "value": "0x0",
        "input": "0xd0def5210000000000000000000000006db1508deeb45e0194d4716349622806672f6ac20000000000000000000000000000000000000000000000000000000000000040000000000000000000000000000000000000000000000000000000000000006768747470733a2f2f7261772e67697468756275736572636f6e74656e742e636f6d2f76616962686176303830362f6572612d6d756c74692d706572736f6e612f6d61737465722f636f6e7472616374732f6d657461646174612f72657669657765722e6a736f6e00000000000000000000000000000000000000000000000000",
        "nonce": "0x1f",
        "chainId": "0x40da"
      },
      "additionalContracts": [],
      "isFixedGasLimit": false
    }
  ],
  "receipts": [
    {
      "status": "0x1",
      "cumulativeGasUsed": "0x1253d4",
      "logs": [
        {
          "address": "0x33847c5500c2443e2f3bbf547d9b069b334c3d16",
          "topics": [
            "0x8be0079c531659141344cd1fd0a4f28419497f9722a3daafe3b4186f6b6457e0",
            "0x0000000000000000000000000000000000000000000000000000000000000000",
            "0x0000000000000000000000006db1508deeb45e0194d4716349622806672f6ac2"
          ],
          "data": "0x",
          "blockHash": "0xf23e3fc14e1bef4f21c2ef940e4667b1cfbd099aaabbb60403d258f6d50f51aa",
          "blockNumber": "0x1c9a9cb",
          "transactionHash": "0x2612cebdd5356e3b28152c121cc0239a96cf7c431618922dbfc49ad02aa41ab8",
          "transactionIndex": "0x0",
          "logIndex": "0x0",
          "removed": false
        }
      ],
      "logsBloom": "0x00000000000000000000000000000000000000000000000000800000000000000000000000000000000000000000000000000000000000000000000000000000000840000000000000000000000000000001000000000000104000000000000000000000020000000000000000000800002000000000000000000000000000400001000000000000000000000000000000000000000000000000000000000000000000000000000000000000000000000000000000000000000000000000000000000000000000000000000000000000000000000000000000000000000020000000000000000000000000000000000000000000000000000000000000000000",
      "type": "0x0",
      "transactionHash": "0x2612cebdd5356e3b28152c121cc0239a96cf7c431618922dbfc49ad02aa41ab8",
      "transactionIndex": "0x0",
      "blockHash": "0xf23e3fc14e1bef4f21c2ef940e4667b1cfbd099aaabbb60403d258f6d50f51aa",
      "blockNumber": "0x1c9a9cb",
      "gasUsed": "0x1253d4",
      "effectiveGasPrice": "0xee6b2807",
      "from": "0x6db1508deeb45e0194d4716349622806672f6ac2",
      "to": null,
      "contractAddress": "0x33847c5500c2443e2f3bbf547d9b069b334c3d16"
    },
    {
      "status": "0x1",
      "cumulativeGasUsed": "0x15d164",
      "logs": [
        {
          "address": "0x33847c5500c2443e2f3bbf547d9b069b334c3d16",
          "topics": [
            "0xddf252ad1be2c89b69c2b068fc378daa952ba7f163c4a11628f55a4df523b3ef",
            "0x0000000000000000000000000000000000000000000000000000000000000000",
            "0x0000000000000000000000006db1508deeb45e0194d4716349622806672f6ac2",
            "0x0000000000000000000000000000000000000000000000000000000000000000"
          ],
          "data": "0x",
          "blockHash": "0xf23e3fc14e1bef4f21c2ef940e4667b1cfbd099aaabbb60403d258f6d50f51aa",
          "blockNumber": "0x1c9a9cb",
          "transactionHash": "0xc0e6fbb215570982b6fd1b8c2cd4f7fa6f00dffa3ae1b63e7b121619ad1b0463",
          "transactionIndex": "0x1",
          "logIndex": "0x1",
          "removed": false
        }
      ],
      "logsBloom": "0x00000000000000000000000000000000000000000000000000000000000000000000000000000000000000000000000000000000000000000000000000000000000840000000000000000008000000000000000000000000104000000000000000000000020000000000000000000800002000000000000000000010000000000001000000000000000000000000000000000000000000000000000000000000000000000000000000000000000000000000000000000000000000000000000000000002000000000000000000000000000000000000000000000000000020000000000000000000000000000000000000000000000000000000000000000000",
      "type": "0x0",
      "transactionHash": "0xc0e6fbb215570982b6fd1b8c2cd4f7fa6f00dffa3ae1b63e7b121619ad1b0463",
      "transactionIndex": "0x1",
      "blockHash": "0xf23e3fc14e1bef4f21c2ef940e4667b1cfbd099aaabbb60403d258f6d50f51aa",
      "blockNumber": "0x1c9a9cb",
      "gasUsed": "0x37d90",
      "effectiveGasPrice": "0xee6b2807",
      "from": "0x6db1508deeb45e0194d4716349622806672f6ac2",
      "to": "0x33847c5500c2443e2f3bbf547d9b069b334c3d16",
      "contractAddress": null
    },
    {
      "status": "0x1",
      "cumulativeGasUsed": "0x18bb3a",
      "logs": [
        {
          "address": "0x33847c5500c2443e2f3bbf547d9b069b334c3d16",
          "topics": [
            "0xddf252ad1be2c89b69c2b068fc378daa952ba7f163c4a11628f55a4df523b3ef",
            "0x0000000000000000000000000000000000000000000000000000000000000000",
            "0x0000000000000000000000006db1508deeb45e0194d4716349622806672f6ac2",
            "0x0000000000000000000000000000000000000000000000000000000000000001"
          ],
          "data": "0x",
          "blockHash": "0xf23e3fc14e1bef4f21c2ef940e4667b1cfbd099aaabbb60403d258f6d50f51aa",
          "blockNumber": "0x1c9a9cb",
          "transactionHash": "0xe7d12a63614b473e763414dcf9fe0ffe7581558fb6de3fd51d3802ac8dcb5566",
          "transactionIndex": "0x2",
          "logIndex": "0x2",
          "removed": false
        }
      ],
      "logsBloom": "0x00000000000000000000000000000000000000000000000000000000000000000000000000000000000000000000000000000000000000000000000000040000000840000000000000000008000000000000000000040000104000000000000000000000020000000000000000000800002000000000000000000010000000000001000000000000000000000000000000000000000000000000000000000000000000000000000000000000000000000000000000000000000000000000000000000002000000000000000000000000000000000000000000000000000060000000000000000000000000000000000000000000000000000000000000000000",
      "type": "0x0",
      "transactionHash": "0xe7d12a63614b473e763414dcf9fe0ffe7581558fb6de3fd51d3802ac8dcb5566",
      "transactionIndex": "0x2",
      "blockHash": "0xf23e3fc14e1bef4f21c2ef940e4667b1cfbd099aaabbb60403d258f6d50f51aa",
      "blockNumber": "0x1c9a9cb",
      "gasUsed": "0x2e9d6",
      "effectiveGasPrice": "0xee6b2807",
      "from": "0x6db1508deeb45e0194d4716349622806672f6ac2",
      "to": "0x33847c5500c2443e2f3bbf547d9b069b334c3d16",
      "contractAddress": null
    },
    {
      "status": "0x1",
      "cumulativeGasUsed": "0x1ba537",
      "logs": [
        {
          "address": "0x33847c5500c2443e2f3bbf547d9b069b334c3d16",
          "topics": [
            "0xddf252ad1be2c89b69c2b068fc378daa952ba7f163c4a11628f55a4df523b3ef",
            "0x0000000000000000000000000000000000000000000000000000000000000000",
            "0x0000000000000000000000006db1508deeb45e0194d4716349622806672f6ac2",
            "0x0000000000000000000000000000000000000000000000000000000000000002"
          ],
          "data": "0x",
          "blockHash": "0xf23e3fc14e1bef4f21c2ef940e4667b1cfbd099aaabbb60403d258f6d50f51aa",
          "blockNumber": "0x1c9a9cb",
          "transactionHash": "0x0bb9d7094f6f697e9d02384046eac0a8c1bb167afb4f4382705b9be7e9a7039c",
          "transactionIndex": "0x3",
          "logIndex": "0x3",
          "removed": false
        }
      ],
      "logsBloom": "0x04000000000000000000000000000000000000000000000000000000000000000000000000000000000000000000000000000000000000000000000000000000000840000000000000000008000000000000000000000000104000000000000000000000020000000000000000000800002000000000000000000010000000000001000000000000000000000000000000000000000000000000000000000000000000000000000000000100000000000000000000000000000000000000000000000002000000000000000000000000000000000000000000000000000020000000000000000000000000000000000000000000008000000000000000000000",
      "type": "0x0",
      "transactionHash": "0x0bb9d7094f6f697e9d02384046eac0a8c1bb167afb4f4382705b9be7e9a7039c",
      "transactionIndex": "0x3",
      "blockHash": "0xf23e3fc14e1bef4f21c2ef940e4667b1cfbd099aaabbb60403d258f6d50f51aa",
      "blockNumber": "0x1c9a9cb",
      "gasUsed": "0x2e9fd",
      "effectiveGasPrice": "0xee6b2807",
      "from": "0x6db1508deeb45e0194d4716349622806672f6ac2",
      "to": "0x33847c5500c2443e2f3bbf547d9b069b334c3d16",
      "contractAddress": null
    }
  ],
  "libraries": [],
  "pending": [],
  "returns": {},
  "timestamp": 1777236402801,
  "chain": 16602,
  "commit": "4ac5e16"
}